{
  "_format": "hh-sol-artifact-1",
  "contractName": "Salami",
  "sourceName": "contracts/Salami.sol",
  "abi": [
    {
      "inputs": [
        {
          "internalType": "address",
          "name": "_to",
          "type": "address"
        }
      ],
      "name": "getAllSalamiForTo",
      "outputs": [
        {
          "components": [
            {
              "internalType": "address",
              "name": "from",
              "type": "address"
            },
            {
              "internalType": "address",
              "name": "to",
              "type": "address"
            },
            {
              "internalType": "uint256",
              "name": "amount",
              "type": "uint256"
            },
            {
              "internalType": "string",
              "name": "message",
              "type": "string"
            },
            {
              "internalType": "bool",
              "name": "seen",
              "type": "bool"
            },
            {
              "internalType": "uint256",
              "name": "time",
              "type": "uint256"
            }
          ],
          "internalType": "struct Salami.SalamiInfo[]",
          "name": "",
          "type": "tuple[]"
        }
      ],
      "stateMutability": "view",
      "type": "function"
    },
    {
      "inputs": [],
      "name": "getAllUsers",
      "outputs": [
        {
          "components": [
            {
              "internalType": "string",
              "name": "name",
              "type": "string"
            },
            {
              "internalType": "string",
              "name": "tag",
              "type": "string"
            },
            {
              "internalType": "address",
              "name": "userAddress",
              "type": "address"
            },
            {
              "internalType": "bool",
              "name": "registered",
              "type": "bool"
            }
          ],
          "internalType": "struct Salami.User[]",
          "name": "",
          "type": "tuple[]"
        }
      ],
      "stateMutability": "view",
      "type": "function"
    },
    {
      "inputs": [],
      "name": "getUserDetails",
      "outputs": [
        {
          "components": [
            {
              "internalType": "string",
              "name": "name",
              "type": "string"
            },
            {
              "internalType": "string",
              "name": "tag",
              "type": "string"
            },
            {
              "internalType": "address",
              "name": "userAddress",
              "type": "address"
            },
            {
              "internalType": "bool",
              "name": "registered",
              "type": "bool"
            }
          ],
          "internalType": "struct Salami.User",
          "name": "",
          "type": "tuple"
        }
      ],
      "stateMutability": "view",
      "type": "function"
    },
    {
      "inputs": [
        {
          "internalType": "string",
          "name": "name",
          "type": "string"
        },
        {
          "internalType": "string",
          "name": "tag",
          "type": "string"
        }
      ],
      "name": "register",
      "outputs": [],
      "stateMutability": "nonpayable",
      "type": "function"
    },
    {
      "inputs": [
        {
          "internalType": "address",
          "name": "_to",
          "type": "address"
        },
        {
          "internalType": "address",
          "name": "_from",
          "type": "address"
        }
      ],
      "name": "salamiSeen",
      "outputs": [],
      "stateMutability": "nonpayable",
      "type": "function"
    },
    {
      "inputs": [
        {
          "internalType": "address payable",
          "name": "_to",
          "type": "address"
        },
        {
          "internalType": "string",
          "name": "message",
          "type": "string"
        }
      ],
      "name": "sendMoney",
      "outputs": [],
      "stateMutability": "payable",
      "type": "function"
    }
  ],
  "bytecode": "0x6080604052348015600f57600080fd5b50611dbc8061001f6000396000f3fe6080604052600436106100555760003560e01c8063139d92cd1461005a5780633ffbd47f1461007657806361c5563b1461009f578063942886be146100c8578063cc08235a146100f3578063e2842d7914610130575b600080fd5b610074600480360381019061006f919061128a565b61015b565b005b34801561008257600080fd5b5061009d600480360381019061009891906112e6565b61058e565b005b3480156100ab57600080fd5b506100c660048036038101906100c1919061139c565b610792565b005b3480156100d457600080fd5b506100dd61082e565b6040516100ea91906114ef565b60405180910390f35b3480156100ff57600080fd5b5061011a60048036038101906101159190611511565b610a19565b60405161012791906116a2565b60405180910390f35b34801561013c57600080fd5b50610145610d70565b60405161015291906117f0565b60405180910390f35b6000803373ffffffffffffffffffffffffffffffffffffffff1673ffffffffffffffffffffffffffffffffffffffff16815260200190815260200160002060020160149054906101000a900460ff166101e9576040517f08c379a00000000000000000000000000000000000000000000000000000000081526004016101e09061186f565b60405180910390fd5b6000808373ffffffffffffffffffffffffffffffffffffffff1673ffffffffffffffffffffffffffffffffffffffff16815260200190815260200160002060020160149054906101000a900460ff16610277576040517f08c379a000000000000000000000000000000000000000000000000000000000815260040161026e906118db565b60405180910390fd5b60008273ffffffffffffffffffffffffffffffffffffffff163460405161029d9061192c565b60006040518083038185875af1925050503d80600081146102da576040519150601f19603f3d011682016040523d82523d6000602084013e6102df565b606091505b5050905080610323576040517f08c379a000000000000000000000000000000000000000000000000000000000815260040161031a9061198d565b60405180910390fd5b6040518060c001604052803373ffffffffffffffffffffffffffffffffffffffff1681526020018473ffffffffffffffffffffffffffffffffffffffff168152602001670de0b6b3a76400003461037a91906119dc565b815260200183815260200160001515815260200142815250600260008573ffffffffffffffffffffffffffffffffffffffff1673ffffffffffffffffffffffffffffffffffffffff16815260200190815260200160002060003373ffffffffffffffffffffffffffffffffffffffff1673ffffffffffffffffffffffffffffffffffffffff16815260200190815260200160002060008201518160000160006101000a81548173ffffffffffffffffffffffffffffffffffffffff021916908373ffffffffffffffffffffffffffffffffffffffff16021790555060208201518160010160006101000a81548173ffffffffffffffffffffffffffffffffffffffff021916908373ffffffffffffffffffffffffffffffffffffffff1602179055506040820151816002015560608201518160030190816104bb9190611c19565b5060808201518160040160006101000a81548160ff02191690831515021790555060a08201518160050155905050600360008473ffffffffffffffffffffffffffffffffffffffff1673ffffffffffffffffffffffffffffffffffffffff168152602001908152602001600020339080600181540180825580915050600190039060005260206000200160009091909190916101000a81548173ffffffffffffffffffffffffffffffffffffffff021916908373ffffffffffffffffffffffffffffffffffffffff160217905550505050565b6000803373ffffffffffffffffffffffffffffffffffffffff1673ffffffffffffffffffffffffffffffffffffffff16815260200190815260200160002060020160149054906101000a900460ff161561061d576040517f08c379a000000000000000000000000000000000000000000000000000000000815260040161061490611d37565b60405180910390fd5b60405180608001604052808381526020018281526020013373ffffffffffffffffffffffffffffffffffffffff168152602001600115158152506000803373ffffffffffffffffffffffffffffffffffffffff1673ffffffffffffffffffffffffffffffffffffffff16815260200190815260200160002060008201518160000190816106aa9190611c19565b5060208201518160010190816106c09190611c19565b5060408201518160020160006101000a81548173ffffffffffffffffffffffffffffffffffffffff021916908373ffffffffffffffffffffffffffffffffffffffff16021790555060608201518160020160146101000a81548160ff0219169083151502179055509050506001339080600181540180825580915050600190039060005260206000200160009091909190916101000a81548173ffffffffffffffffffffffffffffffffffffffff021916908373ffffffffffffffffffffffffffffffffffffffff1602179055505050565b6001600260008473ffffffffffffffffffffffffffffffffffffffff1673ffffffffffffffffffffffffffffffffffffffff16815260200190815260200160002060008373ffffffffffffffffffffffffffffffffffffffff1673ffffffffffffffffffffffffffffffffffffffff16815260200190815260200160002060040160006101000a81548160ff0219169083151502179055505050565b61083661102e565b6000803373ffffffffffffffffffffffffffffffffffffffff1673ffffffffffffffffffffffffffffffffffffffff16815260200190815260200160002060405180608001604052908160008201805461088f90611a3c565b80601f01602080910402602001604051908101604052809291908181526020018280546108bb90611a3c565b80156109085780601f106108dd57610100808354040283529160200191610908565b820191906000526020600020905b8154815290600101906020018083116108eb57829003601f168201915b5050505050815260200160018201805461092190611a3c565b80601f016020809104026020016040519081016040528092919081815260200182805461094d90611a3c565b801561099a5780601f1061096f5761010080835404028352916020019161099a565b820191906000526020600020905b81548152906001019060200180831161097d57829003601f168201915b505050505081526020016002820160009054906101000a900473ffffffffffffffffffffffffffffffffffffffff1673ffffffffffffffffffffffffffffffffffffffff1673ffffffffffffffffffffffffffffffffffffffff1681526020016002820160149054906101000a900460ff161515151581525050905090565b60606000600360008473ffffffffffffffffffffffffffffffffffffffff1673ffffffffffffffffffffffffffffffffffffffff16815260200190815260200160002080549050905060008167ffffffffffffffff811115610a7e57610a7d61115f565b5b604051908082528060200260200182016040528015610ab757816020015b610aa461106e565b815260200190600190039081610a9c5790505b50905060005b82811015610d65576000600360008773ffffffffffffffffffffffffffffffffffffffff1673ffffffffffffffffffffffffffffffffffffffff1681526020019081526020016000208281548110610b1857610b17611d57565b5b9060005260206000200160009054906101000a900473ffffffffffffffffffffffffffffffffffffffff169050600260008773ffffffffffffffffffffffffffffffffffffffff1673ffffffffffffffffffffffffffffffffffffffff16815260200190815260200160002060008273ffffffffffffffffffffffffffffffffffffffff1673ffffffffffffffffffffffffffffffffffffffff1681526020019081526020016000206040518060c00160405290816000820160009054906101000a900473ffffffffffffffffffffffffffffffffffffffff1673ffffffffffffffffffffffffffffffffffffffff1673ffffffffffffffffffffffffffffffffffffffff1681526020016001820160009054906101000a900473ffffffffffffffffffffffffffffffffffffffff1673ffffffffffffffffffffffffffffffffffffffff1673ffffffffffffffffffffffffffffffffffffffff16815260200160028201548152602001600382018054610c9290611a3c565b80601f0160208091040260200160405190810160405280929190818152602001828054610cbe90611a3c565b8015610d0b5780601f10610ce057610100808354040283529160200191610d0b565b820191906000526020600020905b815481529060010190602001808311610cee57829003601f168201915b505050505081526020016004820160009054906101000a900460ff16151515158152602001600582015481525050838381518110610d4c57610d4b611d57565b5b6020026020010181905250508080600101915050610abd565b508092505050919050565b6060600060018054905067ffffffffffffffff811115610d9357610d9261115f565b5b604051908082528060200260200182016040528015610dcc57816020015b610db961102e565b815260200190600190039081610db15790505b50905060005b6001805490508110156110265760008060018381548110610df657610df5611d57565b5b9060005260206000200160009054906101000a900473ffffffffffffffffffffffffffffffffffffffff1673ffffffffffffffffffffffffffffffffffffffff1673ffffffffffffffffffffffffffffffffffffffff168152602001908152602001600020604051806080016040529081600082018054610e7690611a3c565b80601f0160208091040260200160405190810160405280929190818152602001828054610ea290611a3c565b8015610eef5780601f10610ec457610100808354040283529160200191610eef565b820191906000526020600020905b815481529060010190602001808311610ed257829003601f168201915b50505050508152602001600182018054610f0890611a3c565b80601f0160208091040260200160405190810160405280929190818152602001828054610f3490611a3c565b8015610f815780601f10610f5657610100808354040283529160200191610f81565b820191906000526020600020905b815481529060010190602001808311610f6457829003601f168201915b505050505081526020016002820160009054906101000a900473ffffffffffffffffffffffffffffffffffffffff1673ffffffffffffffffffffffffffffffffffffffff1673ffffffffffffffffffffffffffffffffffffffff1681526020016002820160149054906101000a900460ff16151515158152505082828151811061100e5761100d611d57565b5b60200260200101819052508080600101915050610dd2565b508091505090565b60405180608001604052806060815260200160608152602001600073ffffffffffffffffffffffffffffffffffffffff1681526020016000151581525090565b6040518060c00160405280600073ffffffffffffffffffffffffffffffffffffffff168152602001600073ffffffffffffffffffffffffffffffffffffffff1681526020016000815260200160608152602001600015158152602001600081525090565b6000604051905090565b600080fd5b600080fd5b600073ffffffffffffffffffffffffffffffffffffffff82169050919050565b6000611111826110e6565b9050919050565b61112181611106565b811461112c57600080fd5b50565b60008135905061113e81611118565b92915050565b600080fd5b600080fd5b6000601f19601f8301169050919050565b7f4e487b7100000000000000000000000000000000000000000000000000000000600052604160045260246000fd5b6111978261114e565b810181811067ffffffffffffffff821117156111b6576111b561115f565b5b80604052505050565b60006111c96110d2565b90506111d5828261118e565b919050565b600067ffffffffffffffff8211156111f5576111f461115f565b5b6111fe8261114e565b9050602081019050919050565b82818337600083830152505050565b600061122d611228846111da565b6111bf565b90508281526020810184848401111561124957611248611149565b5b61125484828561120b565b509392505050565b600082601f83011261127157611270611144565b5b813561128184826020860161121a565b91505092915050565b600080604083850312156112a1576112a06110dc565b5b60006112af8582860161112f565b925050602083013567ffffffffffffffff8111156112d0576112cf6110e1565b5b6112dc8582860161125c565b9150509250929050565b600080604083850312156112fd576112fc6110dc565b5b600083013567ffffffffffffffff81111561131b5761131a6110e1565b5b6113278582860161125c565b925050602083013567ffffffffffffffff811115611348576113476110e1565b5b6113548582860161125c565b9150509250929050565b6000611369826110e6565b9050919050565b6113798161135e565b811461138457600080fd5b50565b60008135905061139681611370565b92915050565b600080604083850312156113b3576113b26110dc565b5b60006113c185828601611387565b92505060206113d285828601611387565b9150509250929050565b600081519050919050565b600082825260208201905092915050565b60005b838110156114165780820151818401526020810190506113fb565b60008484015250505050565b600061142d826113dc565b61143781856113e7565b93506114478185602086016113f8565b6114508161114e565b840191505092915050565b6114648161135e565b82525050565b60008115159050919050565b61147f8161146a565b82525050565b600060808301600083015184820360008601526114a28282611422565b915050602083015184820360208601526114bc8282611422565b91505060408301516114d1604086018261145b565b5060608301516114e46060860182611476565b508091505092915050565b600060208201905081810360008301526115098184611485565b905092915050565b600060208284031215611527576115266110dc565b5b600061153584828501611387565b91505092915050565b600081519050919050565b600082825260208201905092915050565b6000819050602082019050919050565b6000819050919050565b61157d8161156a565b82525050565b600060c08301600083015161159b600086018261145b565b5060208301516115ae602086018261145b565b5060408301516115c16040860182611574565b50606083015184820360608601526115d98282611422565b91505060808301516115ee6080860182611476565b5060a083015161160160a0860182611574565b508091505092915050565b60006116188383611583565b905092915050565b6000602082019050919050565b60006116388261153e565b6116428185611549565b9350836020820285016116548561155a565b8060005b858110156116905784840389528151611671858261160c565b945061167c83611620565b925060208a01995050600181019050611658565b50829750879550505050505092915050565b600060208201905081810360008301526116bc818461162d565b905092915050565b600081519050919050565b600082825260208201905092915050565b6000819050602082019050919050565b6000608083016000830151848203600086015261170d8282611422565b915050602083015184820360208601526117278282611422565b915050604083015161173c604086018261145b565b50606083015161174f6060860182611476565b508091505092915050565b600061176683836116f0565b905092915050565b6000602082019050919050565b6000611786826116c4565b61179081856116cf565b9350836020820285016117a2856116e0565b8060005b858110156117de57848403895281516117bf858261175a565b94506117ca8361176e565b925060208a019950506001810190506117a6565b50829750879550505050505092915050565b6000602082019050818103600083015261180a818461177b565b905092915050565b600082825260208201905092915050565b7f596f75206e65656420746f207265676973746572206669727374000000000000600082015250565b6000611859601a83611812565b915061186482611823565b602082019050919050565b600060208201905081810360008301526118888161184c565b9050919050565b7f526563697069656e74206973206e6f7420726567697374657265640000000000600082015250565b60006118c5601b83611812565b91506118d08261188f565b602082019050919050565b600060208201905081810360008301526118f4816118b8565b9050919050565b600081905092915050565b50565b60006119166000836118fb565b915061192182611906565b600082019050919050565b600061193782611909565b9150819050919050565b7f5472616e73666572206661696c65642e00000000000000000000000000000000600082015250565b6000611977601083611812565b915061198282611941565b602082019050919050565b600060208201905081810360008301526119a68161196a565b9050919050565b7f4e487b7100000000000000000000000000000000000000000000000000000000600052601260045260246000fd5b60006119e78261156a565b91506119f28361156a565b925082611a0257611a016119ad565b5b828204905092915050565b7f4e487b7100000000000000000000000000000000000000000000000000000000600052602260045260246000fd5b60006002820490506001821680611a5457607f821691505b602082108103611a6757611a66611a0d565b5b50919050565b60008190508160005260206000209050919050565b60006020601f8301049050919050565b600082821b905092915050565b600060088302611acf7fffffffffffffffffffffffffffffffffffffffffffffffffffffffffffffffff82611a92565b611ad98683611a92565b95508019841693508086168417925050509392505050565b6000819050919050565b6000611b16611b11611b0c8461156a565b611af1565b61156a565b9050919050565b6000819050919050565b611b3083611afb565b611b44611b3c82611b1d565b848454611a9f565b825550505050565b600090565b611b59611b4c565b611b64818484611b27565b505050565b5b81811015611b8857611b7d600082611b51565b600181019050611b6a565b5050565b601f821115611bcd57611b9e81611a6d565b611ba784611a82565b81016020851015611bb6578190505b611bca611bc285611a82565b830182611b69565b50505b505050565b600082821c905092915050565b6000611bf060001984600802611bd2565b1980831691505092915050565b6000611c098383611bdf565b9150826002028217905092915050565b611c22826113dc565b67ffffffffffffffff811115611c3b57611c3a61115f565b5b611c458254611a3c565b611c50828285611b8c565b600060209050601f831160018114611c835760008415611c71578287015190505b611c7b8582611bfd565b865550611ce3565b601f198416611c9186611a6d565b60005b82811015611cb957848901518255600182019150602085019450602081019050611c94565b86831015611cd65784890151611cd2601f891682611bdf565b8355505b6001600288020188555050505b505050505050565b7f5573657220616c72656164792072656769737465726564000000000000000000600082015250565b6000611d21601783611812565b9150611d2c82611ceb565b602082019050919050565b60006020820190508181036000830152611d5081611d14565b9050919050565b7f4e487b7100000000000000000000000000000000000000000000000000000000600052603260045260246000fdfea2646970667358221220fcb1f2bf73c19fc63e2d4592a9db8ec1c282dfc5a029856c39c1c6a6e67daac464736f6c634300081b0033",
  "linkReferences": {},
  "deployedLinkReferences": {}
}