{
  "_format": "hh-sol-artifact-1",
  "contractName": "Salami",
  "sourceName": "contracts/Salami.sol",
  "abi": [
    {
      "inputs": [
        {
          "internalType": "address",
          "name": "_to",
          "type": "address"
        },
        {
          "internalType": "address",
          "name": "_from",
          "type": "address"
        }
      ],
      "name": "getSalamiMessage",
      "outputs": [
        {
          "components": [
            {
              "internalType": "address",
              "name": "from",
              "type": "address"
            },
            {
              "internalType": "address",
              "name": "to",
              "type": "address"
            },
            {
              "internalType": "uint256",
              "name": "amount",
              "type": "uint256"
            },
            {
              "internalType": "string",
              "name": "message",
              "type": "string"
            },
            {
              "internalType": "bool",
              "name": "seen",
              "type": "bool"
            }
          ],
          "internalType": "struct Salami.SalamiInfo",
          "name": "",
          "type": "tuple"
        }
      ],
      "stateMutability": "view",
      "type": "function"
    },
    {
      "inputs": [],
      "name": "getUserDetails",
      "outputs": [
        {
          "components": [
            {
              "internalType": "string",
              "name": "name",
              "type": "string"
            },
            {
              "internalType": "address",
              "name": "userAddress",
              "type": "address"
            },
            {
              "internalType": "bool",
              "name": "registered",
              "type": "bool"
            }
          ],
          "internalType": "struct Salami.User",
          "name": "",
          "type": "tuple"
        }
      ],
      "stateMutability": "view",
      "type": "function"
    },
    {
      "inputs": [
        {
          "internalType": "string",
          "name": "_name",
          "type": "string"
        },
        {
          "internalType": "string",
          "name": "_tag",
          "type": "string"
        }
      ],
      "name": "register",
      "outputs": [],
      "stateMutability": "nonpayable",
      "type": "function"
    },
    {
      "inputs": [
        {
          "internalType": "address",
          "name": "_to",
          "type": "address"
        },
        {
          "internalType": "address",
          "name": "_from",
          "type": "address"
        }
      ],
      "name": "salamiSeen",
      "outputs": [],
      "stateMutability": "nonpayable",
      "type": "function"
    },
    {
      "inputs": [
        {
          "internalType": "address payable",
          "name": "_to",
          "type": "address"
        },
        {
          "internalType": "string",
          "name": "message",
          "type": "string"
        }
      ],
      "name": "sendMoney",
      "outputs": [],
      "stateMutability": "payable",
      "type": "function"
    }
  ],
  "bytecode": "0x6080604052348015600f57600080fd5b506112de8061001f6000396000f3fe60806040526004361061004a5760003560e01c8063139d92cd1461004f57806343c011541461006b57806361c5563b146100a8578063942886be146100d1578063f2c298be146100fc575b600080fd5b61006960048036038101906100649190610b4c565b610125565b005b34801561007757600080fd5b50610092600480360381019061008d9190610be6565b61038c565b60405161009f9190610d5e565b60405180910390f35b3480156100b457600080fd5b506100cf60048036038101906100ca9190610be6565b610586565b005b3480156100dd57600080fd5b506100e6610621565b6040516100f39190610dd0565b60405180910390f35b34801561010857600080fd5b50610123600480360381019061011e9190610df2565b61077a565b005b60008273ffffffffffffffffffffffffffffffffffffffff163460405161014b90610e6c565b60006040518083038185875af1925050503d8060008114610188576040519150601f19603f3d011682016040523d82523d6000602084013e61018d565b606091505b50509050806101d1576040517f08c379a00000000000000000000000000000000000000000000000000000000081526004016101c890610ede565b60405180910390fd5b6040518060a001604052803373ffffffffffffffffffffffffffffffffffffffff1681526020018473ffffffffffffffffffffffffffffffffffffffff168152602001670de0b6b3a7640000346102289190610f2d565b815260200183815260200160001515815250600160008573ffffffffffffffffffffffffffffffffffffffff1673ffffffffffffffffffffffffffffffffffffffff16815260200190815260200160002060003373ffffffffffffffffffffffffffffffffffffffff1673ffffffffffffffffffffffffffffffffffffffff16815260200190815260200160002060008201518160000160006101000a81548173ffffffffffffffffffffffffffffffffffffffff021916908373ffffffffffffffffffffffffffffffffffffffff16021790555060208201518160010160006101000a81548173ffffffffffffffffffffffffffffffffffffffff021916908373ffffffffffffffffffffffffffffffffffffffff160217905550604082015181600201556060820151816003019081610363919061116a565b5060808201518160040160006101000a81548160ff021916908315150217905550905050505050565b6103946108fe565b600160008473ffffffffffffffffffffffffffffffffffffffff1673ffffffffffffffffffffffffffffffffffffffff16815260200190815260200160002060008373ffffffffffffffffffffffffffffffffffffffff1673ffffffffffffffffffffffffffffffffffffffff1681526020019081526020016000206040518060a00160405290816000820160009054906101000a900473ffffffffffffffffffffffffffffffffffffffff1673ffffffffffffffffffffffffffffffffffffffff1673ffffffffffffffffffffffffffffffffffffffff1681526020016001820160009054906101000a900473ffffffffffffffffffffffffffffffffffffffff1673ffffffffffffffffffffffffffffffffffffffff1673ffffffffffffffffffffffffffffffffffffffff168152602001600282015481526020016003820180546104e190610f8d565b80601f016020809104026020016040519081016040528092919081815260200182805461050d90610f8d565b801561055a5780601f1061052f5761010080835404028352916020019161055a565b820191906000526020600020905b81548152906001019060200180831161053d57829003601f168201915b505050505081526020016004820160009054906101000a900460ff161515151581525050905092915050565b60018060008473ffffffffffffffffffffffffffffffffffffffff1673ffffffffffffffffffffffffffffffffffffffff16815260200190815260200160002060008373ffffffffffffffffffffffffffffffffffffffff1673ffffffffffffffffffffffffffffffffffffffff16815260200190815260200160002060040160006101000a81548160ff0219169083151502179055505050565b61062961095b565b6000803373ffffffffffffffffffffffffffffffffffffffff1673ffffffffffffffffffffffffffffffffffffffff16815260200190815260200160002060405180606001604052908160008201805461068290610f8d565b80601f01602080910402602001604051908101604052809291908181526020018280546106ae90610f8d565b80156106fb5780601f106106d0576101008083540402835291602001916106fb565b820191906000526020600020905b8154815290600101906020018083116106de57829003601f168201915b505050505081526020016001820160009054906101000a900473ffffffffffffffffffffffffffffffffffffffff1673ffffffffffffffffffffffffffffffffffffffff1673ffffffffffffffffffffffffffffffffffffffff1681526020016001820160149054906101000a900460ff161515151581525050905090565b6000803373ffffffffffffffffffffffffffffffffffffffff1673ffffffffffffffffffffffffffffffffffffffff16815260200190815260200160002060010160149054906101000a900460ff1615610809576040517f08c379a000000000000000000000000000000000000000000000000000000000815260040161080090611288565b60405180910390fd5b60405180606001604052808281526020013373ffffffffffffffffffffffffffffffffffffffff168152602001600115158152506000803373ffffffffffffffffffffffffffffffffffffffff1673ffffffffffffffffffffffffffffffffffffffff1681526020019081526020016000206000820151816000019081610890919061116a565b5060208201518160010160006101000a81548173ffffffffffffffffffffffffffffffffffffffff021916908373ffffffffffffffffffffffffffffffffffffffff16021790555060408201518160010160146101000a81548160ff02191690831515021790555090505050565b6040518060a00160405280600073ffffffffffffffffffffffffffffffffffffffff168152602001600073ffffffffffffffffffffffffffffffffffffffff16815260200160008152602001606081526020016000151581525090565b604051806060016040528060608152602001600073ffffffffffffffffffffffffffffffffffffffff1681526020016000151581525090565b6000604051905090565b600080fd5b600080fd5b600073ffffffffffffffffffffffffffffffffffffffff82169050919050565b60006109d3826109a8565b9050919050565b6109e3816109c8565b81146109ee57600080fd5b50565b600081359050610a00816109da565b92915050565b600080fd5b600080fd5b6000601f19601f8301169050919050565b7f4e487b7100000000000000000000000000000000000000000000000000000000600052604160045260246000fd5b610a5982610a10565b810181811067ffffffffffffffff82111715610a7857610a77610a21565b5b80604052505050565b6000610a8b610994565b9050610a978282610a50565b919050565b600067ffffffffffffffff821115610ab757610ab6610a21565b5b610ac082610a10565b9050602081019050919050565b82818337600083830152505050565b6000610aef610aea84610a9c565b610a81565b905082815260208101848484011115610b0b57610b0a610a0b565b5b610b16848285610acd565b509392505050565b600082601f830112610b3357610b32610a06565b5b8135610b43848260208601610adc565b91505092915050565b60008060408385031215610b6357610b6261099e565b5b6000610b71858286016109f1565b925050602083013567ffffffffffffffff811115610b9257610b916109a3565b5b610b9e85828601610b1e565b9150509250929050565b6000610bb3826109a8565b9050919050565b610bc381610ba8565b8114610bce57600080fd5b50565b600081359050610be081610bba565b92915050565b60008060408385031215610bfd57610bfc61099e565b5b6000610c0b85828601610bd1565b9250506020610c1c85828601610bd1565b9150509250929050565b610c2f81610ba8565b82525050565b6000819050919050565b610c4881610c35565b82525050565b600081519050919050565b600082825260208201905092915050565b60005b83811015610c88578082015181840152602081019050610c6d565b60008484015250505050565b6000610c9f82610c4e565b610ca98185610c59565b9350610cb9818560208601610c6a565b610cc281610a10565b840191505092915050565b60008115159050919050565b610ce281610ccd565b82525050565b600060a083016000830151610d006000860182610c26565b506020830151610d136020860182610c26565b506040830151610d266040860182610c3f565b5060608301518482036060860152610d3e8282610c94565b9150506080830151610d536080860182610cd9565b508091505092915050565b60006020820190508181036000830152610d788184610ce8565b905092915050565b60006060830160008301518482036000860152610d9d8282610c94565b9150506020830151610db26020860182610c26565b506040830151610dc56040860182610cd9565b508091505092915050565b60006020820190508181036000830152610dea8184610d80565b905092915050565b600060208284031215610e0857610e0761099e565b5b600082013567ffffffffffffffff811115610e2657610e256109a3565b5b610e3284828501610b1e565b91505092915050565b600081905092915050565b50565b6000610e56600083610e3b565b9150610e6182610e46565b600082019050919050565b6000610e7782610e49565b9150819050919050565b600082825260208201905092915050565b7f5472616e73666572206661696c65642e00000000000000000000000000000000600082015250565b6000610ec8601083610e81565b9150610ed382610e92565b602082019050919050565b60006020820190508181036000830152610ef781610ebb565b9050919050565b7f4e487b7100000000000000000000000000000000000000000000000000000000600052601260045260246000fd5b6000610f3882610c35565b9150610f4383610c35565b925082610f5357610f52610efe565b5b828204905092915050565b7f4e487b7100000000000000000000000000000000000000000000000000000000600052602260045260246000fd5b60006002820490506001821680610fa557607f821691505b602082108103610fb857610fb7610f5e565b5b50919050565b60008190508160005260206000209050919050565b60006020601f8301049050919050565b600082821b905092915050565b6000600883026110207fffffffffffffffffffffffffffffffffffffffffffffffffffffffffffffffff82610fe3565b61102a8683610fe3565b95508019841693508086168417925050509392505050565b6000819050919050565b600061106761106261105d84610c35565b611042565b610c35565b9050919050565b6000819050919050565b6110818361104c565b61109561108d8261106e565b848454610ff0565b825550505050565b600090565b6110aa61109d565b6110b5818484611078565b505050565b5b818110156110d9576110ce6000826110a2565b6001810190506110bb565b5050565b601f82111561111e576110ef81610fbe565b6110f884610fd3565b81016020851015611107578190505b61111b61111385610fd3565b8301826110ba565b50505b505050565b600082821c905092915050565b600061114160001984600802611123565b1980831691505092915050565b600061115a8383611130565b9150826002028217905092915050565b61117382610c4e565b67ffffffffffffffff81111561118c5761118b610a21565b5b6111968254610f8d565b6111a18282856110dd565b600060209050601f8311600181146111d457600084156111c2578287015190505b6111cc858261114e565b865550611234565b601f1984166111e286610fbe565b60005b8281101561120a578489015182556001820191506020850194506020810190506111e5565b868310156112275784890151611223601f891682611130565b8355505b6001600288020188555050505b505050505050565b7f5573657220616c72656164792072656769737465726564000000000000000000600082015250565b6000611272601783610e81565b915061127d8261123c565b602082019050919050565b600060208201905081810360008301526112a181611265565b905091905056fea26469706673582212205b9323ddd33a77fdedffb41e040a687538fb3fd683560047e5c256ea88c72a9f64736f6c634300081b0033",
  "linkReferences": {},
  "deployedLinkReferences": {}
}